:020000040800F2
:1000000000800020C52300084D230008532300086A
:10001000592300085F230008652300080000000042
:100020000000000000000000000000006B2300083A
:1000300079230008000000008723000895230008AA
:1000400015240008152400081524000815240008AC
:10005000152400081524000815240008152400089C
:10006000152400081524000815240008152400088C
:10007000152400081524000815240008152400087C
:1000800015240008000000001524000815240008AD
:10009000152400081524000815240008152400085C
:1000A000152400081524000815240008152400084C
:1000B000152400081524000815240008152400083C
:1000C000152400081524000815240008152400082C
:1000D000152400081524000815240008152400081C
:1000E000152400081524000815240008152400080C
:1000F000152400081524000815240008000000003D
:10010000000000001524000800000000152400086D
:10011000152400080000000015240008152400081C
:1001200015240008152400081524000815240008CB
:10013000152400080000000000000000152400083D
:10014000152400081524000800000000000000002D
:10015000000000000000000000000000000000009F
:10016000000000000000000000000000152400084E
:10017000152400080000000000000000000000003E
:10018000000000001524000800000000000000002E
:10019000000000000000000000000000000000005F
:1001A00000000000000000001524000815240008CD
:1001B000152400081524000815240008000000007C
:1001C00000000000152400080000000000000000EE
:0801D0001524000815240008A5
:1001D80010B5054C237833B9044B13B10448AFF379
:1001E80000800123237010BD1000002000000000D3
:1001F8003842000808B5034B1BB103490348AFF365
:10020800008008BD000000001400002038420008EB
:1002180070B54FF0FF0C4CF4E06C1CEA11541DBF94
:100228001CEA135594EA0C0F95EA0C0F00F0DEF85F
:100238002C4481EA030621EA4C5123EA4C5350EA44
:10024800013518BF52EA033541F4801143F4801395
:1002580038D0A0FB02CE4FF00005E1FB02E506F026
:100268000042E0FB03E54FF00006E1FB03569CF07B
:10027800000F18BF4EF0010EA4F1FF04B6F5007F81
:1002880064F5407404D25FEA4E0E6D4146EB0606F3
:1002980042EAC62141EA55514FEAC52040EA5E507C
:1002A8004FEACE2EB4F1FD0C88BFBCF5E06F1ED826
:1002B800BEF1004F08BF5FEA500E50F1000041EB5D
:1002C800045170BD06F0004646EA010140EA02000A
:1002D80081EA0301B4EB5C04C2BFD4EB0C0541EA2C
:1002E800045170BD41F480114FF0000E013C00F341
:1002F800AB8014F1360FDEBF002001F0004170BD65
:10030800C4F10004203C35DA0C341BDC04F114047D
:10031800C4F1200500FA05F320FA04F001FA05F209
:1003280040EA020001F0004221F0004110EBD370D6
:1003380021FA04F642EB06015EEA430E08BF20EA02
:10034800D37070BDC4F10C04C4F1200500FA04F3A5
:1003580020FA05F001FA04F240EA020001F0004137
:1003680010EBD37041F100015EEA430E08BF20EAAA
:10037800D37070BDC4F1200500FA05F24EEA020EF2
:1003880020FA04F301FA05F243EA020321FA04F021
:1003980001F0004121FA04F220EA020000EBD370D8
:1003A8005EEA430E08BF20EAD37070BD94F0000FD8
:1003B8000FD101F00046400041EB010111F4801F0C
:1003C80008BF013CF7D041EA060195F0000F18BFBD
:1003D800704703F00046520043EB030313F4801FF9
:1003E80008BF013DF7D043EA0603704794EA0C0FB3
:1003F8000CEA135518BF95EA0C0F0CD050EA4106C9
:1004080018BF52EA4306D1D181EA030101F0004145
:100418004FF0000070BD50EA410606BF104619466D
:1004280052EA430619D094EA0C0F02D150EA013679
:1004380013D195EA0C0F05D152EA03361CBF1046BA
:1004480019460AD181EA030101F0004141F0FE4159
:1004580041F470014FF0000070BD41F0FE4141F4DD
:10046800780170BD81F0004102E000BF83F00043D5
:1004780030B54FEA41044FEA430594EA050F08BF37
:1004880090EA020F1FBF54EA000C55EA020C7FEAFB
:10049800645C7FEA655C00F0E2804FEA5454D4EB78
:1004A8005555B8BF6D420CDD2C4480EA020281EA42
:1004B800030382EA000083EA010180EA020281EA7A
:1004C8000303362D88BF30BD11F0004F4FEA0131CC
:1004D8004FF4801C4CEA113102D0404261EB4101DB
:1004E80013F0004F4FEA03334CEA133302D0524261
:1004F80063EB430394EA050F00F0A780A4F101041D
:10050800D5F1200E0DDB02FA0EFC22FA05F2801856
:1005180041F1000103FA0EF2801843FA05F359413C
:100528000EE0A5F120050EF1200E012A03FA0EFCBB
:1005380028BF4CF0020C43FA05F3C01851EBE371E5
:1005480001F0004507D54FF0000EDCF1000C7EEB02
:1005580000006EEB0101B1F5801F1BD3B1F5001F40
:100568000CD349085FEA30004FEA3C0C04F101045F
:100578004FEA445212F5800F80F09A80BCF1004F88
:1005880008BF5FEA500C50F1000041EB045141EA0A
:10059800050130BD5FEA4C0C404141EB0101013CD3
:1005A80028BFB1F5801FE9D291F0000F04BF0146C2
:1005B8000020B1FA81F308BF2033A3F10B03B3F194
:1005C80020020CDA0C3208DD02F1140CC2F10C0224
:1005D80001FA0CF021FA02F10CE002F11402D8BF82
:1005E800C2F1200C01FA02F120FA0CFCDCBF41EA4E
:1005F8000C019040E41AA2BF01EB0451294330BD1D
:100608006FEA04041F3C1CDA0C340EDC04F11404F9
:10061800C4F1200220FA04F001FA02F340EA0300D0
:1006280021FA04F345EA030130BDC4F10C04C4F116
:10063800200220FA02F001FA04F340EA03002946F6
:1006480030BD21FA04F0294630BD94F0000F83F440
:10065800801306BF81F480110134013D4EE77FEA23
:10066800645C18BF7FEA655C29D094EA050F08BF6F
:1006780090EA020F05D054EA000C04BF1946104650
:1006880030BD91EA030F1EBF0021002030BD5FEA94
:10069800545C05D14000494128BF41F0004130BDBC
:1006A80014F580043CBF01F5801130BD01F0004510
:1006B80045F0FE4141F470014FF0000030BD7FEA83
:1006C800645C1ABF194610467FEA655C1CBF0B467E
:1006D800024650EA013406BF52EA033591EA030F95
:1006E80041F4002130BD00BF90F0000F04BF00218D
:1006F800704730B54FF4806404F132044FF00005C0
:100708004FF0000150E700BF90F0000F04BF002138
:10071800704730B54FF4806404F1320410F000459E
:1007280048BF40424FF000013EE700BF42004FEA99
:10073800E2014FEA31014FEA02701FBF12F07F4316
:1007480093F07F4F81F06051704732F07F4208BFCD
:10075800704793F07F4F04BF41F40021704730B5D4
:100768004FF4607401F0004521F000411CE700BF20
:1007780050EA010208BF704730B54FF000050AE0A3
:1007880050EA010208BF704730B511F0004502D5A4
:10079800404261EB41014FF4806404F132045FEAA6
:1007A800915C3FF4D8AE4FF003025FEADC0C18BF4F
:1007B80003325FEADC0C18BF033202EBDC02C2F141
:1007C800200300FA03FC20FA02F001FA03FE40EAD3
:1007D8000E0021FA02F11444BDE600BF4A0011D20E
:1007E80012F5001211D20DD56FF47873B3EB625283
:1007F8000ED44FEAC12343F0004343EA505323FA8F
:1008080002F070474FF00000704750EA013002D103
:100818004FF0FF3070474FF00000704780B487B04A
:1008280000AF786039604FF6FF73FB8200233B61AD
:1008380026E03B697A6813441B789AB2FB8A5340D6
:10084800FB820823FB6015E0FB8A03F00103002B01
:100858000AD0FB8A5B08FB82FB8A83F4BF4383F0E0
:100868007E03DB43FB8202E0FB8A5B08FB82FB68BA
:10087800013BFB60FB68002BE6D13B6901333B6120
:100888003A693B689A42D4DBFB8A18461C37BD4656
:100898005DF8047B7047000080B584B000AF7860D5
:1008A8000B46FB70A04A7B6813600023FB819F4BBB
:1008B80000225A609D4B00229A609C4B4FF4002204
:1008C800DA609A4B00229A61974B1B6840211846C0
:1008D80002F024FA0346002B00F01482924B1868A9
:1008E800934B944A402102F03FF94FF4005192484B
:1008F80002F0C8FC8F4B9B68B3F1005F40F00282A6
:100908008C4B5B68002B40F0FD818A4B9B69002B68
:1009180040F0F881874B1B68A3F58073062B00F223
:10092800008201A252F823F04D090008430A00088A
:10093800B90A0008510B0008C70B0008250C00086D
:10094800990C0008794B4FF480721A60774B4FF47A
:100958000022DA60FB7807EE903AF8EE677A17EE35
:10096800900AFFF7E3FE4FF00002744BFFF750FCCC
:1009780002460B46104619464FF00002704BFFF72F
:1009880047FC02460B4610461946FFF727FF034669
:100998009BB21B0A9BB2DAB26A4B1A70FB7807EE5D
:1009A800903AF8EE677A17EE900AFFF7BFFE4FF01D
:1009B8000002624BFFF72CFC02460B461046194614
:1009C8004FF000025E4BFFF723FC02460B46104631
:1009D8001946FFF703FF03469BB2DAB2594B5A7028
:1009E800584B00229A70574B6422DA70554B0322F9
:1009F8001A71544BE8225A7106215248FFF70EFF2C
:100A08000346FB81FB891B0A9BB2DAB24D4B9A71F4
:100A1800FB89DAB24B4BDA71434B1B68184602F07C
:100A28009BF90346002B00F06F813F4B1B68454A3A
:100A38003E49184602F054F866E13C4B40F2011278
:100A48001A603A4B4FF40022DA603E4B03221A70C8
:100A58003C4BE8225A703B4B00229A70394B0A22D1
:100A6800DA70384B00221A71364B4B225A71062124
:100A78003448FFF7D3FE0346FB81FB891B0A9BB270
:100A8800DAB2304B9A71FB89DAB22E4BDA71264B07
:100A98001B68184602F060F90346002B00F0368107
:100AA800214B1B68274A2149184602F019F82DE105
:100AB8001E4B4FF481721A601C4B4FF40022DA600F
:100AC800204B00221A701F4B00225A701D4B002227
:100AD8009A701C4B0022DA701A4B00221A71194BBB
:100AE80000225A7106211748FFF798FE0346FB813A
:100AF800FB891B0A9BB2DAB2124B9A71FB89DAB2F4
:100B0800104BDA71084B1B68184602F025F90346AA
:100B1800002B00F0FD80044B1B680A4A0349184665
:100B280001F0DEFFF4E000BF880000202C00002068
:100B380080000020580000200004004800000A40FF
:100B48000000594050000020784B40F203121A6010
:100B5800764B4FF40022DA60754B00221A70744B02
:100B680003225A70724B20229A70714B6822DA70F5
:100B78006F4B00221A716E4B03225A7106216C4882
:100B8800FFF74CFE0346FB81FB891B0A9BB2DAB2D6
:100B9800674B9A71FB89DAB2654BDA71654B1B6852
:100BA800184602F0D9F80346002B00F0B380614BD9
:100BB8001B685F4A5D49184601F092FFAAE05B4B4B
:100BC8004FF482721A60594B4FF48022DA60584A07
:100BD800FB781370564B04225A7002215448FFF7D1
:100BE8001DFE0346FB81FB891B0A9BB2DAB2504B00
:100BF8009A70FB89DAB24E4BDA704E4B1B68184676
:100C080002F0AAF80346002B00F08680494B1B68C7
:100C1800474A4649184601F063FF7DE0434B40F2DE
:100C280005121A60414B4FF40022DA60404B0B2248
:100C38001A703F4BA4225A703D4B0B229A703C4BC2
:100C4800A422DA703A4B0B221A71394BA4225A713A
:100C580006213748FFF7E2FD0346FB81FB891B0AA3
:100C68009BB2DAB2324B9A71FB89DAB2304BDA7145
:100C7800304B1B68184602F06FF80346002B4DD026
:100C88002C4B1B682A4A2949184601F029FF45E0E0
:100C9800264B4FF483721A60244B4FF40022DA601B
:100CA800234B0B221A70224BA4225A70204B0B2282
:100CB8009A701F4BA422DA701D4B0B221A711C4B21
:100CC800A4225A7106211A48FFF7A8FD0346FB81A2
:100CD800FB891B0A9BB2DAB2154B9A71FB89DAB20F
:100CE800134BDA71134B1B68184602F035F80346AC
:100CF800002B15D00F4B1B680D4A0C49184601F004
:100D0800EFFE0DE000BF0CE000BF0AE000BF08E006
:100D180000BF06E000BF04E000BF02E000BF00E043
:100D280000BF00BF1037BD4680BD00BF2C000020AB
:100D3800500000208800002080B584B000AF7860A3
:100D48000B46FB70B24A7B681360B24B4FF080428F
:100D58005A60B04B00229A60AE4B4FF40022DA6022
:100D6800AC4B00229A61AA4B1B684021184601F03F
:100D7800D5FF0346002B00F0BD82A54B1868A64B93
:100D8800A64A402101F0F0FE4FF40051A44802F0B9
:100D980079FAA24B5B68B3F1804F40F0AB829F4B6E
:100DA8009B68002B40F0A6829C4B9B69002B40F06F
:100DB800A1829A4B1B689B4A934200F0F380994AA0
:100DC800934200F2BE82984A934200F07581964A97
:100DD800934200F2B682954A934200F03D81934ACD
:100DE800934200F2AE82924A934200F09581904A73
:100DF800934200F2A6828F4A934200F0ED818D4A19
:100E0800934200F29E828C4A934200F0B5818A4A4E
:100E1800934200F29682894A93420CD0874A9342C1
:100E280000F28F82864A934200F00682854A9342F6
:100E380000F0318285E2774B834A1A60754B4FF494
:100E48000022DA60FB7807EE903AF8EE677A17EE40
:100E5800900AFFF76BFC4FF000027C4BFFF7D8F9C4
:100E680002460B46104619464FF00002784BFFF732
:100E7800CFF902460B4610461946FFF7AFFC03466A
:100E88009BB21B0A9BB2DAB2634B1A70FB7807EE6F
:100E9800903AF8EE677A17EE900AFFF747FC4FF0A2
:100EA80000026A4BFFF7B4F902460B461046194692
:100EB8004FF00002664BFFF7ABF902460B461046AF
:100EC8001946FFF78BFC03469BB2DAB2524B5A70B5
:100ED800FB7807EE903AF8EE677A17EE900AFFF77C
:100EE80025FC49A3D3E90023FFF792F902460B46F4
:100EF800104619464FF00002554BFFF789F9024694
:100F08000B4610461946FFF769FC03469BB21B0ABD
:100F18009BB2DAB2404B9A70FB7807EE903AF8EE43
:100F2800677A17EE900AFFF701FC37A3D3E900238D
:100F3800FFF76EF902460B46104619464FF00002BD
:100F4800434BFFF765F902460B4610461946FFF773
:100F580045FC03469BB2DAB22F4BDA7047F2945342
:100F6800FB81FB891B0A9BB2DAB22B4B1A71FB89F6
:100F7800DAB2294B5A71284B02229A71264BEE227B
:100F8800DA71234B1B68184601F0E6FE0346002B76
:100F980000F0B2811E4B1B681F4A1E49184601F01B
:100FA8009FFDA9E11B4B2B4A1A601A4B4FF40022F4
:100FB800DA60194B00221A70174B00225A70164B30
:100FC80000229A70144B0022DA70134B00221A7117
:100FD800114B00225A71104B00229A710E4B0022BD
:100FE800DA710B4B1B68184601F0B6FE0346002B5E
:100FF80000F08481064B1B68074A0649184601F031
:101008006FFD7BE1AFF3008085EB51B81E85094089
:10101800E00000208C000020B0000020B800002074
:10102800000400484001981840019618400194189F
:1010380040019318400192184001911840019018FE
:1010480090401012904011120140901800000A4080
:101058000000244001409818AD4BAE4A1A60AC4BD2
:101068004FF40022DA60AC4B0F221A70AA4B05220B
:101078005A70A94B00229A70A74B0022DA70A64B2F
:1010880000221A71A44B00225A71A34B00229A71B4
:10109800A14B0022DA71A14B1B68184601F05CFED7
:1010A8000346002B00F02C819C4B1B689A4A9849F8
:1010B800184601F015FD23E1954B994A1A60944BA7
:1010C8004FF40022DA60944B01221A70924B3C22B2
:1010D8005A70914B3D229A708F4B3E22DA708E4B9C
:1010E8003F221A718C4B2F225A718B4B2E229A71E8
:1010F800894B2D22DA71894B1B68184601F02CFEAA
:101108000346002B00F0FE80844B1B68824A80490E
:10111800184601F0E5FCF5E07D4B824A1A607C4BED
:101128004FF40022DA607C4B00221A707A4B0122BD
:101138005A70794B01229A70774B0022DA70764BFD
:1011480000221A71744B00225A71734B00229A7153
:10115800714B0022DA71714B1B68184601F0FCFDD7
:101168000346002B00F0D0806C4B1B686A4A684924
:10117800184601F0B5FCC7E0654B6B4A1A60644B32
:101188004FF40022DA60644B0D221A70624B202261
:101198005A70614B01229A705F4B0D22DA705E4BD8
:1011A80016221A715C4B00225A715B4B00229A710D
:1011B800594B0022DA71594B1B68184601F0CCFDD7
:1011C8000346002B00F0A280544B1B68524A50493A
:1011D800184601F085FC99E04D4B544A1A604C4B77
:1011E8004FF40022DA604C4B43221A704A4B2022FB
:1011F8005A70494B41229A70474B0D22DA70464B80
:1012080016221A71444B00225A71434B00229A71DC
:10121800414B0022DA71414B1B68184601F09CFDD6
:101228000346002B00F088803C4B1B683A4A38493B
:10123800184601F055FC7FE0354B3D4A1A60344BA7
:101248004FF48032DA60344B55221A70324B002248
:101258005A70314B00229A702F4B0022DA702E4BB5
:1012680000221A712C4B00225A712B4B00229A71C2
:10127800294B0022DA71294B1B68184601F06CFDD6
:101288000346002B5AD0254B1B68234A2049184691
:1012980001F026FC52E01E4B264A1A601C4B4FF404
:1012A8000022DA601C4B00221A701B4B00225A7075
:1012B800194B00229A70184B6422DA70164B0122DF
:1012C8001A71154B00225A71134B00229A71124B56
:1012D8000022DA71114B1B68184601F03DFD0346E8
:1012E800002B2DD00D4B1B680B4A0949184601F0FD
:1012F800F7FB25E000BF24E000BF22E000BF20E0AC
:1013080000BF1EE000BF1CE000BF1AE000BF18E0ED
:101318008C00002001409418B0000020E00000205C
:101328000140961801409318014091180140921805
:10133800409010124090111200BF02E000BF00E080
:1013480000BF00BF1037BD4680BD00BF80B584B068
:1013580000AF78600B46FB70924A7B6813600023ED
:10136800FB81914B4FF080425A608F4B00229A606C
:101378008D4B4FF40022DA608B4B00229A61894B27
:101388001B684021184601F0C9FC0346002B00F0F9
:101398000281844B1868854B854A402101F0E4FBA3
:1013A8004FF40051834801F06DFF814B9B68002B7F
:1013B80040F0F1807E4B5B68B3F1804F40F0EB80EA
:1013C8007B4B9B69002B40F0E680794B1B687A4A7F
:1013D800934240F0E380744B784A1A60724B4FF4A2
:1013E8000022DA60FB7807EE903AF8EE677A17EE9B
:1013F800900AFFF79BF94FF00002714BFEF708FFC8
:1014080002460B46104619464FF000026D4BFEF798
:10141800FFFE02460B4610461946FFF7DFF9034662
:101428009BB21B0A9BB2DAB2674B1A70FB7807EEC5
:10143800903AF8EE677A17EE900AFFF777F94FF0CF
:1014480000025F4BFEF7E4FE02460B4610461946C3
:101458004FF000025B4BFEF7DBFE02460B461046E0
:101468001946FFF7BBF903469BB2DAB2564B5A70DE
:10147800554B00229A70544B3C22DA70524B002292
:101488001A71514B00225A714F4B00229A714E4BE0
:101498000022DA71434B1B68184601F05DFC0346D5
:1014A800002B06D03F4B1B68474A3F49184601F0BE
:1014B80017FB022001F01CF83B4B444A1A603A4BD8
:1014C8004FF40022DA60FB7807EE903AF8EE677A7C
:1014D80017EE900AFFF72AF94FF00002384BFEF793
:1014E80097FE02460B46104619464FF00002354B50
:1014F800FEF78EFE02460B4610461946FFF76EF9B8
:1015080003469BB21B0A9BB2DAB22F4B1A70FB78C8
:1015180007EE903AF8EE677A17EE900AFFF706F9A9
:101528004FF00002264BFEF773FE02460B461046AC
:1015380019464FF00002234BFEF76AFE02460B469F
:1015480010461946FFF74AF903469BB2DAB21E4B1A
:101558005A701D4B00229A701B4B0A22DA701A4BE4
:1015680000221A71184B00225A71174B00229A71E7
:10157800154B0022DA710B4B1B68184601F0ECFB87
:101588000346002B09D0074B1B680F4A064918462B
:1015980001F0A6FA01E000BF00E000BF00BF10376D
:1015A800BD4680BD40010020E40000203801002035
:1015B8001001002000040048E550FF18F4E5061863
:1015C80000000A400000244008010020F4E5FF184C
:1015D80080B582B000AF78600B46FB70AE4A7B687E
:1015E8001360AE4B00225A60AC4B00229A60AB4BA2
:1015F8004FF40022DA60A94B00229A61A84B01221D
:101608001A708AE1A64B1B78013B062B00F27F81FA
:1016180001A252F823F000BFD517000809170008E7
:101628003B1800083D160008B11800086F1700089D
:10163800A3160008994B40F2AB421A60974B4FF43F
:101648000022DA60974B03221A70964B00225A70D8
:10165800944B03229A70934B0022DA70914B162216
:101668001A71904B05225A718E4B16229A718D4B26
:101678000522DA71884B1B68184601F06DFB03469A
:10168800002B06D0844B1B68864A8449184601F013
:1016980027FA012000F02CFF39E1804B40F2AC42E0
:1016A8001A607E4B4FF40022DA607E4B09221A70D2
:1016B8007C4B00225A707B4B00229A70794B002297
:1016C800DA70784BC8221A71764B00225A71754B22
:1016D800C8229A71734B0022DA716F4B1B68184647
:1016E80001F03AFB0346002B06D06B4B1B686D4A92
:1016F8006A49184601F0F4F9012000F0F9FE06E104
:10170800664B4FF4D5721A60644B4FF40022DA60CE
:10171800644B00221A70634B3C225A70614B0022C2
:101728009A70604B0022DA705E4B00221A715D4B92
:1017380000225A715B4B00229A715A4B0022DA71CF
:10174800554B1B68184601F007FB0346002B06D0D3
:10175800514B1B68534A5149184601F0C1F9012001
:1017680000F0C6FED3E04D4B40F2AA221A604B4B64
:101778004FF40022DA604B4B5E221A70494BC822A4
:101788005A70484B00229A70464B3222DA70454B09
:1017980000221A71434B39225A71424B00229A7126
:1017A800404B6422DA713C4B1B68184601F0D4FAAE
:1017B8000346002B06D0384B1B683A4A374918466F
:1017C80001F08EF9012000F093FEA0E0334B40F2C7
:1017D800AA321A60314B4FF40022DA60314B0022F2
:1017E8001A70304B00225A702E4B34229A702D4BAF
:1017F8000022DA702B4BD2221A712A4B00225A711E
:10180800284B64229A71274B0022DA71224B1B68FD
:10181800184601F0A1FA0346002B06D01E4B1B68A0
:10182800204A1E49184601F05BF9012000F060FECD
:101838006DE01A4B40F2AA421A60184B4FF400228E
:10184800DA60184B00221A70164B3C225A70154B5E
:1018580000229A70134B0022DA70124B00221A7180
:10186800104B00225A710F4B00229A710D4B002227
:10187800DA71094B1B68184601F06EFA0346002B13
:1018880006D0054B1B68074A0449184601F028F999
:10189800012000F02DFE3AE07001002044010020F4
:1018A8007401002068010020224B40F2AB321A601C
:1018B800204B4FF40022DA601F4B16221A701E4B81
:1018C80016225A701C4B00229A701B4B0022DA70A9
:1018D800194B00221A71184B00225A71164B00221C
:1018E8009A71154B0022DA71144B1B68184601F0E7
:1018F80033FA0346002B06D0104B1B680E4A0D49DD
:10190800184601F0EDF8012000F0F2FD00BF0C4B85
:101918001B780133DAB20A4B1A70094B1B78072B74
:101928007FF670AE4FF47A7000F0E2FD00BF083722
:10193800BD4680BD440100206801002070010020E0
:101948007401002080B582B000AF00224FF400413E
:101958004FF0904001F07EFC00237B6002E07B6842
:1019680001337B607B68B3F5FA7FF8DB00BF00BF0B
:101978000837BD4680BD80B582B000AF01224FF464
:1019880000414FF0904001F065FC00237B6002E0CD
:101998007B6801337B607B68B3F5FA7FF8DB00BFB7
:1019A80000BF0837BD4680BD80B586B000AF03468E
:1019B800FB710023FB7530E0002208211D4801F06F
:1019C80049FCFA79FB7D42FA03F303F00103002B8B
:1019D8000CBF01230023DBB21A462021154801F071
:1019E80039FC00233B6102E03B6901333B613B6901
:1019F800B3F5FA7FF8DB012208210E4801F02AFC32
:101A08000023FB6002E0FB680133FB60FB68B3F571
:101A1800FA7FF8DBFB7D0133FB75FB7D072BCBD908
:101A280000222021034801F015FC00BF1837BD46ED
:101A380080BD00BF0004004880B584B000AF00231B
:101A4800FB730023BB732FE0002208211A4801F022
:101A580001FC0023BB6002E0BB680133BB60BB68CC
:101A6800B3F5FA7FF8DB01220821134801F0F2FBF5
:101A78001021114801F0D6FB03461A46BB7B02FA37
:101A880003F35AB297F90F3013435BB2FB73002389
:101A98007B6002E07B6801337B607B68B3F5FA7F8B
:101AA800F8DBBB7B0133BB73BB7B072BCCD9FB7B40
:101AB80018461037BD4680BD0004004880B582B086
:101AC80000AF0023FB71FFF73DFF4120FFF76CFFDC
:101AD800FFF751FFFFF736FFC020FFF765FF3F20F4
:101AE800FFF762FF3F20FFF75FFF3F20FFF75CFF34
:101AF8000020FFF759FFFFF73EFF06E0FB790E4A8B
:101B08000021D154FB790133FB71FB790F2BF5D9F7
:101B180000F02AF8FFF716FF1320FFF745FFFFF73D
:101B28002AFFFFF70FFF9720FFF73EFFFFF723FF7E
:101B380000BF0837BD4680BD7801002080B582B05F
:101B480000AF0023FB71FFF7FDFE4320FFF72CFFDA
:101B5800FFF772FF0346FB71FFF70DFFFB7918468D
:101B68000837BD4680BD000080B582B000AF0023B5
:101B7800FB71FFF7E7FE4020FFF716FFFFF7FBFEBC
:101B8800FFF7E0FEC020FFF70FFF08E0FB79084AE7
:101B9800D35C1846FFF708FFFB790133FB71FB792B
:101BA8000F2BF3D9FFF7E7FE00BF0837BD4680BD0E
:101BB8007801002080B582B000AF0023FB7106E0F9
:101BC800FB79074A0021D154FB790133FB71FB797A
:101BD8000F2BF5D9FFF7C8FF00BF0837BD4680BDFA
:101BE8007801002080B483B000AF03460A46FB7139
:101BF8001346BB71BB790133BB71BB790C4AD25C0C
:101C0800BB7902F01002D1B2094AD154BB79084A13
:101C1800D15CFB79074AD25CBB790A43D1B2044A4A
:101C2800D15400BF0C37BD465DF8047B704700BF38
:101C3800780100205042000880B582B000AF00F063
:101C4800E6FB00F079F900F095FA00F0C1F964209C
:101C580000F04EFCFFF732FF642000F049FCFFF76C
:101C6800A9FF01210520FFF7BDFF02211120FFF781
:101C7800B9FF03211220FFF7B5FF04211120FFF758
:101C8800B1FFFFF771FF4FF4FA6000F031FCA5488F
:101C980000F08EFEFFF78EFFA34B1B78A34AA2FB32
:101CA8000323DB08FB71A04B1A78A04BA3FB02139C
:101CB800D9080B469B000B445B00D31ABB71FB7918
:101CC80001211846FFF78EFFBB7902211846FFF75E
:101CD80089FF04210B20FFF785FFFFF745FF944B91
:101CE8009B6903F00103002B05D0914B9B69904A37
:101CF80023F0010393618F4B1B78002B0CD1042137
:101D08000020FFF76FFFFFF72FFF874B1B7819465F
:101D18008448FEF7C1FD42E0864B1B78012B0CD1AD
:101D280004210120FFF75EFFFFF71EFF7E4B1B78A3
:101D380019467C48FFF700F831E07E4B1B78022BF0
:101D48000CD104210220FFF74DFFFFF70DFF764B62
:101D58001B7819467348FFF73BFC20E0754B1B784E
:101D6800032B0CD104210320FFF73CFFFFF7FCFEF7
:101D78006D4B1B7819466B48FEF7DEFF0FE06D4B85
:101D88001B78042B0BD104210420FFF72BFFFFF74E
:101D9800EBFE654B1B7819466248FFF7D7FAFFF749
:101DA800CDFE0346012B52D1012000F0A1FB5E4B72
:101DB8001B780133DAB25C4B1A705B4B1B78092B2A
:101DC8000BD8594B1B7801211846FFF70BFF02214E
:101DD8000A20FFF707FFFFF7C7FE534B1B78092BB5
:101DE8001ED9514B1B78514AA2FB0323DB08FB7118
:101DF8004D4B1A784D4BA3FB0213D9080B469B0099
:101E08000B445B00D31ABB71FB7901211846FFF71D
:101E1800E9FEBB7902211846FFF7E4FEFFF7A4FEAE
:101E2800414B1B78182B0CD93F4B01221A70FFF736
:101E3800C1FE3D4B1B7801211846FFF7D3FEFFF783
:101E480093FE00BFFFF77AFE0346012BFAD0FFF797
:101E580075FE0346022B7FF442AF364B1B780133E5
:101E6800DAB2344B1A70334B1B78042B02D9314B3E
:101E780000221A70022000F03BFB2E4B1B78042B2B
:101E88003CD801A252F823F0A51E0008BD1E000888
:101E9800D51E0008ED1E0008ED1E0008214800F0C0
:101EA800AFFD00F095F81F4800F082FD012000F01A
:101EB8001FFB2FE01B4800F0A3FD00F0CFF81948E6
:101EC80000F076FD012000F013FB23E0154800F038
:101ED80097FD00F009F9134800F06AFD012000F0B1
:101EE80007FB17E00F4800F08BFD00F071F80D4874
:101EF80000F05EFD012000F0FBFA0BE0094800F05D
:101F08007FFD00F065F8074800F052FD012000F061
:101F1800EFFA00BF00BFFFF711FE0346022BFAD00D
:101F2800DDE600BF8801002000000020CDCCCCCC2D
:101F380000640040EC01002080B594B000AF07F1C8
:101F4800180338220021184602F06AF93B1D0022C6
:101F58001A605A609A60DA601A61002001F0ACF9E0
:101F68000223BB614FF480737B624023BB62022370
:101F78007B630223BB630123FB6314233B640223BB
:101F88007B640223BB640223FB6407F11803184631
:101F980001F036FA0346002B01D000F04FF90F2369
:101FA8007B600323BB600023FB6000233B610023AD
:101FB8007B613B1D0421184601F03AFD0346002BC6
:101FC80001D000F03BF900BF5037BD4680BD00008E
:101FD80080B500AF1F4B204A1A601E4B00225A6082
:101FE8001C4B00229A601B4B0022DA60194B00221E
:101FF8001A74184B00225A74164B00229A74154B07
:1020080040225A61134B01229A61124B0222DA6173
:10201800104B02221A620F4B01225A620D4B012209
:102028009A620C4B0122DA620A4B01221A63094BAD
:1020380000225A63074B00229A63064B0022DA6398
:10204800044800F05BFB0346002B01D000F0F6F8D3
:1020580000BF80BD880100200064004080B500AF4B
:102068001F4B204A1A601E4B00225A601C4B00224C
:102078009A601B4B0022DA60194B00221A74184B25
:1020880000225A74164B00229A74154B40225A614A
:10209800134B01229A61124B0822DA61104B01227C
:1020A8001A620F4B01225A620D4B01229A620C4BA5
:1020B8000122DA620A4B01221A63094B00225A6391
:1020C800074B00229A63064B0022DA63044800F0AB
:1020D80015FB0346002B01D000F0B0F800BF80BD0F
:1020E800880100200064004080B500AF1F4B204AE3
:1020F8001A601E4B00225A601C4B00229A601B4B30
:102108000022DA60194B00221A74184B00225A7404
:10211800164B00229A74154B40225A61134B012228
:102128009A61124B0222DA61104B02221A620F4B9B
:1021380001225A620D4B01229A620C4B0122DA628B
:102148000A4B01221A63094B00225A63074B0022EB
:102158009A63064B0022DA63044800F0CFFA03467C
:10216800002B01D000F06AF800BF80BD8801002074
:102178000064004080B588B000AF07F10C0300226E
:102188001A605A609A60DA601A612A4BDB6C294A35
:1021980043F00203D364274BDB6C03F00203BB60FC
:1021A800BB68244BDB6C234A43F00103D364214B07
:1021B800DB6C03F001037B607B68002242F228019C
:1021C8001D4801F047F800224FF400414FF09040BD
:1021D80001F040F842F22803FB6001233B61002331
:1021E8007B610023BB6107F10C031946124800F01C
:1021F80097FE4FF40043FB6001233B6100237B61A2
:102208000023BB6107F10C0319464FF0904000F022
:1022180087FE1023FB6000233B6100237B6107F1ED
:102228000C031946044800F07BFE00BF2037BD466A
:1022380080BD00BF001002400004004880B400AF19
:1022480072B600BFFEE7000080B483B000AF0F4B4A
:102258001B6E0E4A43F0010313660C4B1B6E03F012
:1022680001037B607B68094B9B6D084A43F08053F0
:102278009365064B9B6D03F080533B603B6800BF42
:102288000C37BD465DF8047B704700BF0010024064
:1022980080B59AB000AF786007F1540300221A6045
:1022A8005A609A60DA601A6107F11003442200212B
:1022B800184601F0B5FF7B681B68204A934239D164
:1022C8004FF480533B614FF000733B6407F11003F8
:1022D800184601F091FD0346002B01D0FFF7AEFF31
:1022E800174B9B6D164A43F000739365144B9B6D17
:1022F80003F00073FB60FB68114BDB6C104A43F082
:102308000103D3640E4BDB6C03F00103BB60BB68B5
:102318004FF4C0537B650223BB650023FB65002394
:102328003B6609237B6607F1540319464FF090403A
:1023380000F0F6FD00BF6837BD4680BD0064004070
:102348000010024080B400AFFEE780B400AFFEE7A3
:1023580080B400AFFEE780B400AFFEE780B400AF02
:10236800FEE780B400AF00BFBD465DF8047B704750
:1023780080B400AF00BFBD465DF8047B704780B4F1
:1023880000AF00BFBD465DF8047B704780B500AF65
:1023980000F090F800BF80BD80B400AF064BD3F8C2
:1023A8008830054A43F47003C2F8883000BFBD4640
:1023B8005DF8047B704700BF00ED00E00D488546DE
:1023C8000D480E490E4A002302E0D458C450043385
:1023D800C4188C42F9D30B4A0B4C002301E013605C
:1023E8000432A242FBD3FFF7D7FF01F0F5FEFFF757
:1023F80023FCFEE7008000200000002010000020E1
:102408008C42000810000020F4010020FEE780B58F
:1024180082B000AF0023FB71032000F03DF90F20CC
:1024280000F00EF80346002B02D00123FB7101E0F7
:10243800FFF70AFFFB7918460837BD4680BD000044
:1024480080B584B000AF78600023FB73164B1B681F
:10245800002B22D0154B1A68134B1B684FF47A7166
:10246800B1FBF3F3B2FBF3F3184600F03AF9034675
:10247800002B0FD17B680F2B09D8002279684FF009
:10248800FF3000F014F90A4A7B68136007E0012363
:10249800FB7304E00123FB7301E00123FB73FB7B67
:1024A80018461037BD4680BD0C00002004000020EF
:1024B8000800002080B400AF054B1A68054B1B6864
:1024C8001344034A136000BFBD465DF8047B7047A0
:1024D800F00100200C00002080B400AF034B1B6803
:1024E8001846BD465DF8047B704700BFF001002028
:1024F80080B584B000AF7860FFF7EEFFB8607B6806
:10250800FB60FB68B3F1FF3F04D0094B1B68FA6816
:102518001344FB6000BFFFF7DFFF0246BB68D31A16
:10252800FA689A42F7D800BF00BF1037BD4680BD91
:102538000C00002080B485B000AF78607B6803F0A1
:102548000703FB600C4BDB68BB60BA684FF6FF0300
:102558001340BB60FB681A02BB68134343F0BF63B8
:1025680043F40033BB60044ABB68D36000BF143730
:10257800BD465DF8047B704700ED00E080B400AF15
:10258800044BDB681B0A03F007031846BD465DF8D9
:10259800047B704700ED00E080B483B000AF0346D1
:1025A8003960FB7197F90730002B0ADB3B68DAB218
:1025B8000C4997F907301201D2B20B4483F8002373
:1025C8000AE03B68DAB20849FB7903F00F03043BE1
:1025D8001201D2B20B441A7600BF0C37BD465DF823
:1025E800047B704700E100E000ED00E080B489B0B2
:1025F80000AFF860B9607A60FB6803F00703FB611D
:10260800FB69C3F10703042B28BF0423BB61FB69E3
:102618000433062B02D9FB69033B00E000237B61EE
:102628004FF0FF32BB6902FA03F3DA43BB681A4082
:102638007B699A404FF0FF317B6901FA03F3D94374
:102648007B680B40134318462437BD465DF8047B6E
:102658007047000080B582B000AF78607B68013BAE
:10266800B3F1807F01D301230FE00A4A7B68013B65
:1026780053600F214FF0FF30FFF78EFF054B00220C
:102688009A60044B07221A60002318460837BD4693
:1026980080BD00BF10E000E080B582B000AF786078
:1026A8007868FFF747FF00BF0837BD4680BD80B593
:1026B80086B000AF0346B9607A60FB73FFF75EFF30
:1026C80078617A68B9687869FFF790FF024697F9E8
:1026D8000F3011461846FFF75FFF00BF1837BD4699
:1026E80080BD80B582B000AF78607868FFF7B2FF30
:1026F800034618460837BD4680BD000080B584B043
:1027080000AF78607B68002B01D1012347E17B682B
:1027180093F85C30DBB2002B06D17B68002283F88B
:102728005D207868FFF7B4FD7B681B689A697B6851
:102738001B6822F010029A61FFF7CEFEF86012E0E3
:10274800FFF7CAFE0246FB68D31A0A2B0BD97B682F
:102758001B6E43F001027B681A667B68032283F8CC
:102768005C2001231BE17B681B689B6903F008035D
:10277800082BE5D07B681B689A697B681B6842F068
:1027880001029A61FFF7A8FEF86012E0FFF7A4FEC5
:102798000246FB68D31A0A2B0BD97B681B6E43F0E1
:1027A80001027B681A667B68032283F85C20012398
:1027B800F5E07B681B689B6903F00103002BE5D0FB
:1027C8007B681B689A697B681B6842F002029A6101
:1027D8007B681B68744A934203D1744A7B685B68C0
:1027E80013607B681B7C012B08D17B681B689A6986
:1027F8007B681B6822F040029A6107E07B681B68CF
:102808009A697B681B6842F040029A617B685B7C2E
:10281800012B08D17B681B689A697B681B6842F4A6
:1028280080429A6107E07B681B689A697B681B682D
:1028380022F480429A617B689B7C012B08D17B68DB
:102848001B689A697B681B6822F480529A6107E0CA
:102858007B681B689A697B681B6842F480529A619E
:102868007B681B689B6923F440717B689A687B6866
:102878001B680A439A617B681B689A697B681B68B6
:1028880022F0A4029A617B681B681A697B681B683E
:1028980022F010021A617B68DB68012B08D17B6883
:1028A8001B689A697B681B6842F004029A612CE0F5
:1028B8007B68DB68002B28D07B68DB68022B1CD088
:1028C8007B681B689A697B681B6842F080029A6182
:1028D8007B681B681A697B681B6842F010021A61E2
:1028E8007B68DB68032B10D17B681B689A697B685F
:1028F8001B6842F020029A6107E07B681B689A69AE
:102908007B681B6842F020029A617B689B69013BE7
:102918005A067B68DB69013B1B021A437B681B6A0A
:10292800013B42EA03017B685B69013B1A047B684F
:102938001B680A43DA617B689B68B3F5407F15D151
:102948007B689B6A5A1E7B68DB6A013B1B021A4341
:102958007B681B6B013B1B0142EA03017B685B6AD6
:10296800013B1A047B681B680A43DA607B681B68B2
:10297800D3F8C0107B68DA6B7B681B680A43C3F81E
:10298800C020786800F0FAF97B6800229A657B68B5
:1029980000221A667B68012283F85C20002318460F
:1029A8001037BD4680BD00BF006400400065004090
:1029B80080B483B000AF78607B6893F85C30DBB29A
:1029C800012B10D17B68022283F85C207B681B688E
:1029D8009A697B681B6822F001029A617B68002271
:1029E8001A66002306E07B681B6E43F004027B68CE
:1029F8001A66012318460C37BD465DF8047B7047FC
:102A080080B485B000AF78600023FB607B6893F8E2
:102A18005C30DBB2022B56D17B681B689A697B68F5
:102A28001B6842F001029A6111E0FB680A2B0BD97E
:102A38007B681B6E43F001027B681A667B68032281
:102A480083F85C20012345E0FB680133FB607B6869
:102A58001B689B6903F00103002BE6D00023FB6091
:102A68007B681B689A697B681B6822F010029A6170
:102A780011E0FB680A2B0BD97B681B6E43F001023F
:102A88007B681A667B68032283F85C20012321E0B7
:102A9800FB680133FB607B681B689B6903F00803D4
:102AA800082BE6D07B681B689A697B681B6842F034
:102AB80002029A617B6800229A657B68012283F88A
:102AC8005C20002306E07B681B6E43F008027B68ED
:102AD8001A66012318461437BD465DF8047B704713
:102AE80080B586B000AFF860B9607A60FB6893F88B
:102AF8005C30DBB2022B2CD1FB681B68D3F8C430E6
:102B080003F40013002B07D0FB681B6E43F400721C
:102B1800FB681A66012323E0FB681B68D3F8C430FE
:102B28001B0C03F003037B617B697A68B968F8685A
:102B380000F07AF9FB681B6801217A6901FA02F250
:102B4800C3F8CC2001227B699A40FB689A65002370
:102B580006E0FB681B6E43F00802FB681A66012357
:102B680018461837BD4680BD80B48BB000AFF860FA
:102B7800B9607A603B60FB6893F85C30FB76FB7E5B
:102B8800022B40F0BC80BB68402B21D1FB681B683E
:102B9800D3F8903003F00F03002B07D1FB681B6EAE
:102BA80043F48072FB681A660123AFE0FB681B6878
:102BB800D3F890301B0A03F00303FB61FB68996CA0
:102BC800FA691346DB001344DB000B447B6220E008
:102BD800FB681B68D3F8983003F00F03002B07D16C
:102BE800FB681B6E43F48072FB681A6601238DE054
:102BF800FB681B68D3F898301B0A03F00303FB61DA
:102C0800FB68D96CFA691346DB001344DB000B44FC
:102C18007B627B6A1B6803F080427B685A607B6832
:102C28005B68002B07D17B6A1B689B0CC3F30A0205
:102C38007B681A6005E07B6A1B6823F060427B684A
:102C48001A607B6A1B6803F000527B689A607B6A93
:102C58001B6803F000427B681A617B6A04337B625D
:102C68007B6A1B689AB27B68DA617B6A1B6803F42B
:102C780070227B68DA607B6A1B6803F480127B68C9
:102C88005A617B6A1B6803F400127B689A617B6A4D
:102C98001B681B0E03F07F027B681A627B6A1B6845
:102CA800DA0F7B685A627B6A04337B627B6A7B61DA
:102CB80000233B620AE07A693B6A1A4439683B6A36
:102CC8000B4412781A703B6A01333B627B68DB68FD
:102CD8001B0C114AD35C1A463B6A9342EBD3BB6880
:102CE800402B05D1FB681B68FA69C3F8942004E0FF
:102CF800FB681B68FA69C3F89C20002306E0FB68A0
:102D08001B6E43F00802FB681A66012318462C372D
:102D1800BD465DF8047B70477442000880B485B0F6
:102D280000AF786039603B68402B07D17B681B682F
:102D3800D3F8903003F00F03FB6006E07B681B6854
:102D4800D3F8983003F00F03FB60FB68184614377C
:102D5800BD465DF8047B704780B485B000AF7860ED
:102D68007B681B68D3F8C43003F00703FB60FB687B
:102D780018461437BD465DF8047B704780B485B0AB
:102D880000AF7860274BBB607B68BA681A647B68C1
:102D98001B68D3F8803023F4F8117B685B6B1A0446
:102DA8007B681B680A43C3F88020BB6803F1700284
:102DB8007B685A647B681B68D3F8803023F07061A5
:102DC8007B689B6B1A067B681B680A43C3F88020E4
:102DD800BB6803F1B0027B689A64BB6803F5C472F0
:102DE8007B68DA64BB6803F518727B681A65BB6890
:102DF80003F51E727B685A65BB68FB6005E0FB68DB
:102E080000221A60FB680433FB60BB6803F5547347
:102E1800FA689A42F3D300BF00BF1437BD465DF885
:102E2800047B704700A4004080B489B000AFF8600C
:102E3800B9607A603B60BB685B68002B0AD1BB68ED
:102E48001A69BB689B681A43BB681B689B041343D9
:102E5800FB610AE0BB681A69BB689B681A43BB68D8
:102E68001B68134343F08043FB61BB681B6A1A0667
:102E7800BB68DB691A43BB689B691A43BB685B691B
:102E88001A43BB68DB6813433B61FB68596D3A68BA
:102E98001346DB001344DB000B44BB61BB69FA69D2
:102EA8001A60BB690433BB61BB693A691A60BB69C4
:102EB8000433BB6100237B6120E07B6903337A68BC
:102EC80013441B781A067B69023379680B441B7814
:102ED8001B041A437B69013379680B441B781B0276
:102EE800134379687A690A4412781A43BB691A60ED
:102EF800BB690433BB617B6904337B61BB68DB68F6
:102F08001B0C064AD35C1A467B699342D5D300BF93
:102F180000BF2437BD465DF8047B70477442000843
:102F280080B487B000AF7860396000237B615AE1D4
:102F38003B681A6801217B6901FA03F31340FB60BF
:102F4800FB68002B00F04C813B685B6803F00303CF
:102F5800012B05D03B685B6803F00303022B30D1DB
:102F68007B689B683B617B695B00032202FA03F381
:102F7800DB433A6913403B613B68DA687B695B0075
:102F880002FA03F33A6913433B617B683A699A6032
:102F98007B685B683B6101227B6902FA03F3DB43D0
:102FA8003A6913403B613B685B681B0903F0010207
:102FB8007B6902FA03F33A6913433B617B683A6918
:102FC8005A603B685B6803F00303032B17D07B68E8
:102FD800DB683B617B695B00032202FA03F3DB4396
:102FE8003A6913403B613B689A687B695B0002FA67
:102FF80003F33A6913433B617B683A69DA603B68DB
:103008005B6803F00303022B23D17B69DA087B6832
:10301800083253F822303B617B6903F007039B00B9
:103028000F2202FA03F3DB433A6913403B613B6822
:103038001A697B6903F007039B0002FA03F33A69F4
:1030480013433B617B69DA087B680832396943F8C6
:1030580022107B681B683B617B695B00032202FAD4
:1030680003F3DB433A6913403B613B685B6803F059
:1030780003027B695B0002FA03F33A6913433B617D
:103088007B683A691A603B685B6803F44033002B3D
:1030980000F0A6805B4B1B6E5A4A43F0010313668F
:1030A800584B1B6E03F00103BB60BB68564A7B6933
:1030B8009B08023352F823303B617B6903F003031A
:1030C8009B000F2202FA03F3DB433A6913403B618A
:1030D8007B68B3F1904F1FD07B684C4A934219D05C
:1030E8007B684B4A934213D07B684A4A93420DD07F
:1030F8007B68494A934207D07B68484A934201D18A
:1031080005230AE0062308E0042306E0032304E07D
:10311800022302E0012300E000237A6902F003029F
:10312800920093403A6913433B6137497B699B0896
:1031380002333A6941F82320394B9B683B61FB68AD
:10314800DB433A6913403B613B685B6803F48013D7
:10315800002B03D03A69FB6813433B61304A3B6953
:1031680093602F4BDB683B61FB68DB433A69134094
:103178003B613B685B6803F40013002B03D03A699A
:10318800FB6813433B61264A3B69D360244B5B6869
:103198003B61FB68DB433A6913403B613B685B6812
:1031A80003F40033002B03D03A69FB6813433B61F7
:1031B8001B4A3B6953601A4B1B683B61FB68DB4346
:1031C8003A6913403B613B685B6803F48033002B2A
:1031D80003D03A69FB6813433B61114A3B691360AA
:1031E8007B6901337B613B681A687B6922FA03F3C8
:1031F800002B7FF49DAE00BF00BF1C37BD465DF8B5
:10320800047B7047001002400000014000040048A1
:1032180000080048000C004800100048001400484E
:103228000004014080B485B000AF78600B467B8015
:103238007B681A697B881340002B02D00123FB733B
:1032480001E00023FB73FB7B18461437BD465DF88D
:10325800047B704780B483B000AF78600B467B80F6
:1032680013467B707B78002B03D07A887B689A6141
:1032780002E07A887B689A6200BF0C37BD465DF829
:10328800047B704780B485B000AF78600B467B80C4
:103298007B685B69FB607A88FB6813401A04FB68EB
:1032A800D9437B880B401A437B689A6100BF143767
:1032B800BD465DF8047B704780B485B000AF786088
:1032C8007B68002B41D14B4B1B6803F4C063B3F5FB
:1032D800806F31D1474BD3F88030464A23F480734E
:1032E800C2F88030434B1B6823F4C063414A43F45F
:1032F80000731360404B1B68322202FB03F33F4A02
:10330800A2FB03239B0C0133FB6002E0FB68013B3B
:10331800FB60384B5B6903F48063B3F5806F02D1BF
:10332800FB68002BF2D1334B5B6903F48063B3F580
:10333800806F58D1032357E02E4BD3F880302D4AA5
:1033480023F48073C2F880304DE07B68B3F5007FCA
:1033580041D1284B1B6803F4C063B3F5806F31D1AA
:10336800244BD3F88030234A43F48073C2F880306A
:10337800204B1B6823F4C0631E4A43F40073136098
:103388001D4B1B68322202FB03F31C4AA2FB0323DA
:103398009B0C0133FB6002E0FB68013BFB60154BB3
:1033A8005B6903F48063B3F5806F02D1FB68002B7F
:1033B800F2D1104B5B6903F48063B3F5806F12D1CF
:1033C800032311E00B4BD3F880300A4A43F480738F
:1033D800C2F8803007E0074B1B6823F4C063054A36
:1033E80043F480631360002318461437BD465DF824
:1033F800047B7047007000400400002083DE1B43FC
:1034080080B588B000AF78607B68002B01D10123BC
:1034180006E37B681B6803F00103002B75D0974B0C
:103428009B6803F00C03BB61944BDB6803F0030358
:103438007B61BB690C2B02D17B69032B02D0BB6972
:10344800082B0BD18D4B1B6803F40033002B5BD08A
:103458007B685B68002B57D10123E1E27B685B68DE
:10346800B3F5803F06D1854B1B68844A43F480330B
:1034780013601DE07B685B68B3F5A02F0CD17F4B10
:103488001B687E4A43F4802313607C4B1B687B4A8D
:1034980043F4803313600BE0784B1B68774A23F4BE
:1034A80080331360754B1B68744A23F480231360C0
:1034B8007B685B68002B13D0FFF70EF8386108E0D3
:1034C800FFF70AF802463B69D31A642B01D9032394
:1034D800A6E26A4B1B6803F40033002BF0D014E01B
:1034E800FEF7FAFF386108E0FEF7F6FF02463B698F
:1034F800D31A642B01D9032392E2604B1B6803F4AF
:103508000033002BF0D100E000BF7B681B6803F09C
:103518000203002B75D0594B9B6803F00C03BB6169
:10352800564BDB6803F003037B61BB690C2B02D1AC
:103538007B69022B02D0BB69042B1FD14F4B1B6840
:1035480003F48063002B05D07B68DB68002B01D176
:10355800012365E2494B5B6823F0FE427B681B69E7
:103568001B06464913434B60454B1B681846FEF73C
:1035780067FF0346002B43D0012351E27B68DB68D9
:10358800002B23D03D4B1B683C4A43F480731360E7
:10359800FEF7A2FF386108E0FEF79EFF02463B698E
:1035A800D31A022B01D903233AE2344B1B6803F4E4
:1035B8008063002BF0D0314B5B6823F0FE427B68C0
:1035C8001B691B062D4913434B601AE02B4B1B68E4
:1035D8002A4A23F480731360FEF77EFF386108E0FF
:1035E800FEF77AFF02463B69D31A022B01D903235F
:1035F80016E2224B1B6803F48063002BF0D100E035
:1036080000BF7B681B6803F00803002B41D07B6870
:103618005B69002B1CD0194BD3F89430174A43F040
:103628000103C2F89430FEF757FF386108E0FEF74F
:1036380053FF02463B69D31A022B01D90323EFE15A
:103648000E4BD3F8943003F00203002BEFD020E0A8
:103658000A4BD3F89430094A23F00103C2F8943096
:10366800FEF73AFF38610DE0FEF736FF02463B6988
:10367800D31A022B06D90323D2E100BF001002405F
:10368800080000208C4BD3F8943003F00203002B81
:10369800EAD17B681B6803F00403002B00F0A680C6
:1036A8000023FB77844B9B6D03F08053002B01D1E3
:1036B800012300E00023002B0DD07F4B9B6D7E4A39
:1036C80043F0805393657C4B9B6D03F08053FB6004
:1036D800FB680123FB77794B1B6803F48073002B8D
:1036E80018D1764B1B68754A43F480731360FEF754
:1036F800F3FE386108E0FEF7EFFE02463B69D31A95
:10370800022B01D903238BE16C4B1B6803F48073F4
:10371800002BF0D07B689B68012B08D1664BD3F84F
:103728009030654A43F00103C2F8903024E07B688A
:103738009B68052B10D1604BD3F890305E4A43F05C
:103748000403C2F890305C4BD3F890305A4A43F0E7
:103758000103C2F890300FE0574BD3F89030564A27
:1037680023F00103C2F89030534BD3F89030524AFB
:1037780023F00403C2F890307B689B68002B16D0B6
:10378800FEF7AAFE38610AE0FEF7A6FE02463B698C
:10379800D31A41F28832934201D9032340E1464BC0
:1037A800D3F8903003F00203002BEDD015E0FEF7BC
:1037B80093FE38610AE0FEF78FFE02463B69D31A92
:1037C80041F28832934201D9032329E13A4BD3F8D5
:1037D800903003F00203002BEDD1FB7F012B05D1C4
:1037E800354B9B6D344A23F0805393657B681B6887
:1037F80003F02003002B3CD07B689B69002B1CD076
:103808002D4BD3F898302C4A43F00103C2F8983076
:10381800FEF762FE386108E0FEF75EFE02463B698D
:10382800D31A022B01D90323FAE0234BD3F898309B
:1038380003F00203002BEFD01BE01F4BD3F89830A6
:103848001D4A23F00103C2F89830FEF745FE38619F
:1038580008E0FEF741FE02463B69D31A022B01D964
:103868000323DDE0144BD3F8983003F00203002B58
:10387800EFD17B68DB69002B00F0D1800E4B9B6891
:1038880003F00C030C2B00F08B807B68DB69022BA8
:103898005ED1094B1B68084A23F080731360FEF75A
:1038A8001BFE38610CE0FEF717FE02463B69D31A8F
:1038B800022B05D90323B3E000100240007000403A
:1038C800594B1B6803F00073002BECD1564BDA6898
:1038D800564B13407A68116A7A68526A013A1201A3
:1038E80011437A68926A120211437A68126B52087D
:1038F800013A520511437A68526B5208013A52064E
:1039080011437A68D26AD2060A4347491343CB6007
:10391800454B1B68444A43F080731360424BDB6895
:10392800414A43F08073D360FEF7D6FD386108E062
:10393800FEF7D2FD02463B69D31A022B01D90323B5
:103948006EE0394B1B6803F00073002BF0D066E083
:10395800354B1B68344A23F080731360324BDB68A5
:10396800314A23F00303D3602F4BDB682E4A23F040
:10397800887323F48033D360FEF7AEFD386108E026
:10398800FEF7AAFD02463B69D31A022B01D903238D
:1039980046E0254B1B6803F00073002BF0D13EE096
:1039A8007B68DB69012B01D1012339E01E4BDB6801
:1039B8007B617B6903F003027B681B6A9A422CD106
:1039C8007B6903F0F0027B685B6A013B1B019A424A
:1039D80023D17B6903F4FE427B689B6A1B029A42EF
:1039E8001BD17B6903F078427B68DB6ADB069A426D
:1039F80013D17B6903F4C0027B681B6B5B08013B36
:103A08005B059A4209D17B6903F0C0627B685B6BF6
:103A18005B08013B5B069A4201D0012300E00023CA
:103A280018462037BD4680BD001002400C809F011B
:103A380080B586B000AF7860396000237B617B6811
:103A4800002B01D101231EE1914B1B6803F00F03EA
:103A58003A689A4210D98E4B1B6823F00F028C49A2
:103A68003B6813430B608A4B1B6803F00F033A68EB
:103A78009A4201D0012306E17B681B6803F0010329
:103A8800002B73D07B685B68032B29D1814B1B68A3
:103A980003F00073002B01D10123F4E000F066F974
:103AA80038613B697C4A93423FD97A4B9B6803F063
:103AB800F003002B09D07B681B6803F00203002B7E
:103AC80033D07B689B68002B2FD1724B9B6823F007
:103AD800F003704A43F08003936080237B6124E005
:103AE8007B685B68022B07D16A4B1B6803F40033C1
:103AF800002B09D10123C6E0664B1B6803F48063E1
:103B0800002B01D10123BEE000F0CEF838613B69FB
:103B1800614A934209D95F4B9B6823F0F0035D4AE1
:103B280043F08003936080237B615A4B9B6823F0AA
:103B380003027B685B68574913438B60FEF7CCFC34
:103B4800F8600AE0FEF7C8FC0246FB68D31A41F2A7
:103B58008832934201D9032395E04E4B9B6803F0CA
:103B68000C027B685B689B009A42EBD17B681B6800
:103B780003F00203002B23D07B681B6803F00403C7
:103B8800002B05D0434B9B68424A43F4E0639360A3
:103B98007B681B6803F00803002B07D03D4B9B682C
:103BA80023F47C533B4A43F4E0639360394B9B68AE
:103BB80023F0F0027B689B68364913438B6008E06A
:103BC8007B69802B05D1334B9B68324A23F0F00385
:103BD80093602F4B1B6803F00F033A689A421DD27B
:103BE8002B4B1B6823F00F0229493B6813430B60DA
:103BF800FEF772FCF8600AE0FEF76EFC0246FB680E
:103C0800D31A41F28832934201D903233BE0204B77
:103C18001B6803F00F033A689A42EDD17B681B6872
:103C280003F00403002B08D01A4B9B6823F4E062CE
:103C38007B68DB68174913438B607B681B6803F05C
:103C48000803002B09D0134B9B6823F460527B6850
:103C58001B69DB000F4913438B6000F025F802460F
:103C68000C4B9B681B0903F00F030C49CB5C03F05A
:103C78001F0322FA03F30A4A13600A4B1B6818460B
:103C8800FEF7DEFB034618461837BD4680BD00BF69
:103C9800002002400010024000B4C404644200083E
:103CA800040000200800002080B487B000AF2C4B2F
:103CB8009B6803F00C03042B02D12A4B3B6147E0BD
:103CC800274B9B6803F00C03082B02D1264B3B6162
:103CD8003EE0234B9B6803F00C030C2B36D1204BA2
:103CE800DB6803F00303FB601D4BDB681B0903F073
:103CF8000F030133BB60FB68032B0CD11A4ABB6866
:103D0800B2FBF3F3164AD268120A02F07F0202FBF2
:103D180003F37B610CE0134ABB68B2FBF3F3104A70
:103D2800D268120A02F07F0202FB03F37B6100BF34
:103D38000B4BDB685B0E03F0030301335B007B6016
:103D48007A697B68B2FBF3F33B6101E000233B61D6
:103D58003B6918461C37BD465DF8047B704700BFB9
:103D6800001002400024F40000127A0080B487B0EA
:103D780000AF1E4BDB6803F003033B611B4BDB68A2
:103D88001B0903F00F030133FB603B69032B0CD1C4
:103D9800174AFB68B2FBF3F3144AD268120A02F01E
:103DA8007F0202FB03F37B610CE0124AFB68B2FB63
:103DB800F3F30E4AD268120A02F07F0202FB03F301
:103DC8007B6100BF094BDB685B0E03F00303013323
:103DD8005B00BB607A69BB68B2FBF3F37B607B680E
:103DE80018461C37BD465DF8047B7047001002403A
:103DF80000127A000024F40080B586B000AF786025
:103E08000023FB740023BB747B681B6803F4002346
:103E1800002B00F0988000237B74434B9B6D03F0CC
:103E28008053002B0DD1404B9B6D3F4A43F080538C
:103E380093653D4B9B6D03F08053BB60BB680123CA
:103E48007B743A4B1B68394A43F480731360FEF75E
:103E580043FBF86009E0FEF73FFB0246FB68D31A14
:103E6800022B02D90323FB7405E0304B1B6803F4D3
:103E78008073002BEFD0FB7C002B59D12A4BD3F851
:103E8800903003F440737B617B69002B1ED07B6804
:103E98001B6C7A699A4219D0234BD3F8903023F4DB
:103EA80040737B61204BD3F890301F4A43F4803332
:103EB800C2F890301C4BD3F890301B4A23F480335F
:103EC800C2F89030184A7B69C2F890307B6903F0D9
:103ED8000103002B16D0FEF7FFFAF8600BE0FEF79F
:103EE800FBFA0246FB68D31A41F28832934202D9A0
:103EF8000323FB7406E00C4BD3F8903003F0020365
:103F0800002BECD0FB7C002B0BD1074BD3F8903067
:103F180023F440727B681B6C03491343C1F890304B
:103F280008E0FB7CBB7405E0001002400070004014
:103F3800FB7CBB747B7C012B05D1A64B9B6DA54AF2
:103F480023F0805393657B681B6803F00103002B03
:103F58000AD0A04BD3F8883023F003027B685B6853
:103F68009C491343C1F888307B681B6803F002033F
:103F7800002B0AD0974BD3F8883023F00C027B68CB
:103F88009B6894491343C1F888307B681B6803F029
:103F98000403002B0AD08F4BD3F8883023F030026B
:103FA8007B68DB688B491343C1F888307B681B68E2
:103FB80003F00803002B0AD0864BD3F8883023F08F
:103FC800C0027B681B6983491343C1F888307B684A
:103FD8001B6803F02003002B0AD07E4BD3F88830EF
:103FE80023F440627B685B697A491343C1F88830DF
:103FF8007B681B6803F04003002B0AD0754BD3F88D
:10400800883023F440527B689B6972491343C1F896
:1040180088307B681B6803F08003002B0AD06D4B47
:10402800D3F8883023F440427B68DB69694913433D
:10403800C1F888307B681B6803F48073002B0AD0B2
:10404800644BD3F8883023F440327B681B6A61499B
:104058001343C1F888307B681B6803F40073002B96
:104068000AD05C4BD3F8883023F440227B685B6A23
:1040780058491343C1F888307B681B6803F4806390
:10408800002B15D0534BD3F8883023F440127B68AB
:104098009B6A50491343C1F888307B689B6AB3F523
:1040A800801F05D14B4BDB684A4A43F48013D36029
:1040B8007B681B6803F40063002B15D0454BD3F8CD
:1040C800883023F440027B68DB6A42491343C1F815
:1040D80088307B68DB6AB3F5800F05D13D4BDB6820
:1040E8003C4A43F48013D3607B681B6803F4805315
:1040F800002B15D0374BD3F8883023F040727B68FB
:104108001B6B34491343C1F888307B681B6BB3F1D0
:10411800807F05D12F4BDB682E4A43F48013D36090
:104128007B681B6803F40053002B15D0294BD3F888
:10413800883023F040627B685B6B26491343C1F8E3
:1041480088307B685B6BB3F1006F05D1214BDB686E
:10415800204A43F48013D3607B681B6803F48043D0
:10416800002B15D01B4BD3F8883023F040627B68B6
:104178009B6B18491343C1F888307B689B6BB3F17C
:10418800006F05D1134BDB68124A43F48013D360E8
:104198007B681B6803F40043002B15D00D4BD3F844
:1041A800883023F040527B68DB6B0A491343C1F81F
:1041B80088307B68DB6BB3F1805F05D1054BDB682A
:1041C800044A43F48033D360BB7C18461837BD4695
:1041D80080BD00BF0010024070B50D4D0D4C641B32
:1041E800A4100026A64209D10B4D0C4C00F020F873
:1041F800641BA4100026A64205D170BD55F8043BE7
:1042080098470136EEE755F8043B98470136F2E740
:10421800844200088442000884420008884200085A
:1042280002440346934200D1704703F8011BF9E7A3
:10423800F8B500BFF8BC08BC9E467047F8B500BF8B
:08424800F8BC08BC9E4670475B
:10425000AFA0CBE9E46D6FA8EFED004FCE40E36374
:104260006247420000000000000000000102030459
:10427000060708090001020304050607080C1014CC
:044280001820304092
:04428400FD01000830
:04428800D901000850
:10428C00100000000024F4001000000001000000E9
:04000005080023C507
:00000001FF
